:10000000731040307310003017010100130141FFDD
:10001000171500001305059B971500009385451CD7
:100020006358B50023200500130545006FF05FFFFE
:10003000EF0080006F000000130101FB2326110474
:1000400023248104232A5103232291042320210500
:10005000232E3103232C410323286103232671031C
:1000600023248103232291032320A103232EB10102
:10007000EF00404FEF00C0639305A0001305500050
:10008000EF00C0633714000013058488EF0040536D
:100090009305A00013056000EF00406237150000D3
:1000A0001305458BEF00C0519305A00013057000A8
:1000B000EF00C060371500001305058DEF004050BC
:1000C0009305A00013058000EF00405F13058488AE
:1000D000EF00004F9305A00013850500EF00005EC0
:1000E000371500001305C58FEF00804D9305A00064
:1000F0001305C000EF00805C371500001305459222
:10010000EF00004C37140000B71A0000EF00C047A2
:100110001304049C938A0A1D93074000B71900003A
:1001200023ACF91C13072001930730012320F400AE
:100130002324E40093079000130710012322F40006
:100140002326F4002328E400232AF40013070001E7
:10015000232EF400B7140000930710003719000095
:10016000371B0000371A0000232CE40023A6F41CE0
:100170002324091C23220B1C23200A1CEF004053BC
:10018000EF0080589305200013053000EF00005366
:100190001305B002EF00403D930B60021305D0023F
:1001A000938BFBFFEF00403CE39A0BFE1305B0027C
:1001B000EF00803B930B4000130C6001930520007F
:1001C00013850B00EF00804F1305C007EF00C03907
:1001D00013850B0093059002EF00404E1305C007F6
:1001E000938B1B00EF004038E39A8BFD13850B00C7
:1001F00093052000EF00804C1305B002EF00C036DD
:10020000930B60021305D002938BFBFFEF00C03508
:10021000E39A0BFE1305B002EF000035130C040047
:10022000EF00C05283A7891D63CAFB00EF00005690
:10023000130D1005930D10006F0040173336700139
:1002400083254C0003250C003306C0401376F602CC
:1002500013060604EF00C04C938B1B00130C8C009C
:100260006FF05FFCEF00803463060502EF00C031E1
:10027000930710066302F51063ECA70A6308A50D47
:100280006362AD08930710046308F50E93074004FA
:100290006302F51083A7C41C0327040083264400CF
:1002A000330CF7008327891CB38CF60093B72C011D
:1002B000638C070E93376C026388070E83A7891D32
:1002C00013060400930500009387F7FF63C8F51A2F
:1002D00003A60A006312CC1C03A64A00639ECC1A34
:1002E00083274B1C9387A7002322FB1CEF000046AB
:1002F00083A7891D1306F00F635AF622930B100093
:100300006F00001B93073005630CF504930770051D
:10031000E312F5F80327891C93071000E30CF7F6A6
:1003200023A6041C9307F0FF2324F91C6FF09FF60B
:10033000930730076306F50263E0A70293074006C0
:10034000630AF50493071007E316F5F4930710000A
:100350002320FA1C6FF01FF4930770076FF05FFB08
:100360000327891C9307F0FFE306F7F223A6041C7A
:10037000930710006FF05FFB03A7C41C93071000E6
:10038000E30AF7F09307F0FF23A6F41C2324091CCB
:100390006FF05FF003A7C41C9307F0FFE30CF7EEC8
:1003A000930710006FF05FFE2320BA1D832B0A1CF9
:1003B000E38A0BEA9305D0001305C000EF0000307C
:1003C000B714000013850494EF00801F9305D0003C
:1003D00013850500EF00802E3715000013054595A5
:1003E000EF00001E9305D0001305E000EF00002D84
:1003F0003715000013058596EF00801C03254B1C64
:1004000013092005EF00002137150000130545975B
:10041000EF00001B9305D0001305F000EF00002A49
:100420003715000013050598EF0080199305D000DB
:1004300013050001EF00802813850494EF00401895
:1004400093041005EF00002DEF0000141375F50D57
:10045000E30425CDE31A95FEEF0080259305A00067
:1004600013055000EF00802537150000130545994E
:10047000EF000015EF0000186F00000003250600D4
:100480006316AC0003254600E380ACF293851500AB
:10049000130686006FF09FE393973700B307F400CD
:1004A00083A5470003A5070013060002EF004027BD
:1004B00083A7891D1386F7FF93973700B307F400CE
:1004C000634CC0061306000493850C0013050C0052
:1004D0002320840123229401EF00802483A7891D17
:1004E00063DAFD008325C400032584001306F006AB
:1004F000EF00002363840B00EF00402983270A1CD0
:10050000E39607EAB7C72D00232601009387F76B10
:100510000327C100E3EEE7D0130000000327C1006A
:10052000130717002326E1006FF09FFE9387170043
:1005300023ACF91C6FF09FDC83A507FF938787FF2F
:100540001306F6FF23A0B70083A5C7FF23A2B700B9
:100550006FF01FF700000000000000000000000026
:100560006FF05FAD6780000037070010130787004A
:100570008327070093F71700E38C07FEB7070010E7
:1005800023A0A7006780000037070010130787002B
:100590008327070093F72700E38C07FEB7070010B7
:1005A00003A547001375F50F67800000B70700101B
:1005B00003A587001355150013751500678000000B
:1005C000130101FF232481002326110013040500D9
:1005D00003450400631A05008320C1000324810041
:1005E000130101016780000013041400EFF0DFF72E
:1005F0006FF01FFE130101FF1305D0002326110029
:10060000EFF09FF68320C1001305A0001301010144
:100610006FF09FF563160500130500036FF0DFF41C
:10062000130101FE232E1100232C8100232A9100A7
:1006300093060000635605003305A04093061000A2
:100640009307410013040000938407001306A000E1
:100650003367C50293050400938717001304140041
:100660003345C50213070703A38FE7FEE31205FE18
:10067000638C060093070401338427009307D0029C
:10068000230AF4FE138425001304F4FFB3878400C7
:1006900003C50700EFF05FEDE31804FE8320C101FE
:1006A00003248101832441011301010267800000BA
:1006B00037150000130545816FF09FF0130101FE0F
:1006C000232C810013040500371500001305C58194
:1006D000232E11002326B100EFF09FEE1305040036
:1006E000EFF05FF31305B003EFF01FE80325C1003F
:1006F000EFF05FF2032481018320C1011305800420
:10070000130101026FF05FE6371500001305458203
:100710006FF01FEB371500001305C5826FF05FEA1D
:1007200093870500130101FE9305350013854700EB
:10073000232E11002326C100EFF05FF80325C1002E
:100740008320C101130101026FF01FE29305100025
:10075000130101FF1385050023261100EFF01FF69A
:100760003715000013054583EFF09FE5B71700002C
:1007700003A5471CEFF01FEA8320C10037150000D6
:1007800013050585130101016FF09FE3B718000001
:100790003717000083A7C89B0323871DB76619007E
:1007A00037F66E3C9386D6601306F635130E60025C
:1007B000930E2001371F0000B387D70213070F9C49
:1007C00013080000B387C70033F5C703B387D70208
:1007D000B387C700B3F5D70363406802371700003B
:1007E0001307071D1306A0022322B7002320A7002A
:1007F00023AEF89A6FF0DFF2832F07006316F5013E
:10080000832F4700E38AF5FB1308180013078700BE
:100810006FF09FFC1B5B324A1B5B48001B5B0000B8
:10082000000000001B5B3F32356C00001B5B3F3259
:10083000356800002020524953432D5620536E61E5
:100840006B6520207C202053636F72653A20000086
:100850002020207C2020436F6E74726F6C733A20CE
:10086000573D55702020533D446F776E2020413D09
:100870004C6566742020443D52696768742020519D
:100880003D517569740000003D3D3D3D3D3D3D3DA0
:100890003D3D3D3D3D3D3D3D3D3D3D3D3D3D3D3D88
:1008A0003D3D3D3D3D3D3D3D3D3D3D3D3D3D3D3D78
:1008B0003D000000202057656C636F6D6520746FEC
:1008C00020524953432D5620536E616B6521000021
:1008D000202052756E6E696E67206F6E20594F55DD
:1008E0005220637573746F6D20525633322043501B
:1008F00055206F6E20465047410000002020436F76
:100900006E74726F6C733A20572F412F532F44200F
:10091000746F206D6F76652C205120746F20717577
:10092000697400002020507265737320616E792015
:100930006B657920746F2073746172742E2E2E0093
:100940002B2D2D2D2D2D2D2D2D2D2D2D2D2D2D2DD9
:100950002D2D2B007C20202047414D4520204F5637
:100960004552212020207C007C20202053636F7280
:10097000653A2000202020202020207C000000005C
:100980007C205072657373205220746F20726574DE
:1009900072797C005468616E6B7320666F72207090
:1009A0006C6179696E67212043505520706F7765BF
:1009B000726564206F66662E00000000EFBEADDE3B
:00000001FF
